{"contracts/SentinelChain.sol":{"SentinelChain":{"abi":[{"anonymous":false,"inputs":[{"indexed":false,"internalType":"uint256","name":"threatId","type":"uint256"},{"indexed":false,"internalType":"string","name":"description","type":"string"},{"indexed":false,"internalType":"uint256","name":"timestamp","type":"uint256"}],"name":"ThreatReported","type":"event"},{"inputs":[],"name":"getLatestThreat","outputs":[{"internalType":"string","name":"","type":"string"},{"internalType":"uint256","name":"","type":"uint256"}],"stateMutability":"view","type":"function"},{"inputs":[{"internalType":"string","name":"_description","type":"string"}],"name":"reportThreat","outputs":[],"stateMutability":"nonpayable","type":"function"},{"inputs":[],"name":"threatCount","outputs":[{"internalType":"uint256","name":"","type":"uint256"}],"stateMutability":"view","type":"function"},{"inputs":[{"internalType":"uint256","name":"","type":"uint256"}],"name":"threats","outputs":[{"internalType":"uint256","name":"threatId","type":"uint256"},{"internalType":"string","name":"description","type":"string"},{"internalType":"uint256","name":"timestamp","type":"uint256"}],"stateMutability":"view","type":"function"}],"evm":{"bytecode":{"linkReferences":{},"object":"6080604052348015600f57600080fd5b50610a1e8061001f6000396000f3fe608060405234801561001057600080fd5b506004361061004c5760003560e01c806351dc174214610051578063755246ea146100835780637627f386146100a1578063b6315399146100c0575b600080fd5b61006b600480360381019061006691906103c0565b6100dc565b60405161007a9392919061048c565b60405180910390f35b61008b61018e565b60405161009891906104ca565b60405180910390f35b6100a9610194565b6040516100b79291906104e5565b60405180910390f35b6100da60048036038101906100d5919061064a565b6102c0565b005b6000602052806000526040600020600091509050806000015490806001018054610105906106c2565b80601f0160208091040260200160405190810160405280929190818152602001828054610131906106c2565b801561017e5780601f106101535761010080835404028352916020019161017e565b820191906000526020600020905b81548152906001019060200180831161016157829003601f168201915b5050505050908060020154905083565b60015481565b6060600080600154036101e35760006040518060400160405280601781526020017f4e6f2074687265617473207265706f727465642079657400000000000000000081525090915091506102bc565b600080600060015481526020019081526020016000206040518060600160405290816000820154815260200160018201805461021e906106c2565b80601f016020809104026020016040519081016040528092919081815260200182805461024a906106c2565b80156102975780601f1061026c57610100808354040283529160200191610297565b820191906000526020600020905b81548152906001019060200180831161027a57829003601f168201915b5050505050815260200160028201548152505090508060200151816040015192509250505b9091565b600160008154809291906102d390610722565b9190505550604051806060016040528060015481526020018281526020014281525060008060015481526020019081526020016000206000820151816000015560208201518160010190816103289190610916565b50604082015181600201559050507f11765d698b78ea32999ed7224f13b41dbb016e39f78b0180125edcb19dab8ca5600154824260405161036b9392919061048c565b60405180910390a150565b6000604051905090565b600080fd5b600080fd5b6000819050919050565b61039d8161038a565b81146103a857600080fd5b50565b6000813590506103ba81610394565b92915050565b6000602082840312156103d6576103d5610380565b5b60006103e4848285016103ab565b91505092915050565b6103f68161038a565b82525050565b600081519050919050565b600082825260208201905092915050565b60005b8381101561043657808201518184015260208101905061041b565b60008484015250505050565b6000601f19601f8301169050919050565b600061045e826103fc565b6104688185610407565b9350610478818560208601610418565b61048181610442565b840191505092915050565b60006060820190506104a160008301866103ed565b81810360208301526104b38185610453565b90506104c260408301846103ed565b949350505050565b60006020820190506104df60008301846103ed565b92915050565b600060408201905081810360008301526104ff8185610453565b905061050e60208301846103ed565b9392505050565b600080fd5b600080fd5b7f4e487b7100000000000000000000000000000000000000000000000000000000600052604160045260246000fd5b61055782610442565b810181811067ffffffffffffffff821117156105765761057561051f565b5b80604052505050565b6000610589610376565b9050610595828261054e565b919050565b600067ffffffffffffffff8211156105b5576105b461051f565b5b6105be82610442565b9050602081019050919050565b82818337600083830152505050565b60006105ed6105e88461059a565b61057f565b9050828152602081018484840111156106095761060861051a565b5b6106148482856105cb565b509392505050565b600082601f83011261063157610630610515565b5b81356106418482602086016105da565b91505092915050565b6000602082840312156106605761065f610380565b5b600082013567ffffffffffffffff81111561067e5761067d610385565b5b61068a8482850161061c565b91505092915050565b7f4e487b7100000000000000000000000000000000000000000000000000000000600052602260045260246000fd5b600060028204905060018216806106da57607f821691505b6020821081036106ed576106ec610693565b5b50919050565b7f4e487b7100000000000000000000000000000000000000000000000000000000600052601160045260246000fd5b600061072d8261038a565b91507fffffffffffffffffffffffffffffffffffffffffffffffffffffffffffffffff820361075f5761075e6106f3565b5b600182019050919050565b60008190508160005260206000209050919050565b60006020601f8301049050919050565b600082821b905092915050565b6000600883026107cc7fffffffffffffffffffffffffffffffffffffffffffffffffffffffffffffffff8261078f565b6107d6868361078f565b95508019841693508086168417925050509392505050565b6000819050919050565b600061081361080e6108098461038a565b6107ee565b61038a565b9050919050565b6000819050919050565b61082d836107f8565b6108416108398261081a565b84845461079c565b825550505050565b600090565b610856610849565b610861818484610824565b505050565b5b818110156108855761087a60008261084e565b600181019050610867565b5050565b601f8211156108ca5761089b8161076a565b6108a48461077f565b810160208510156108b3578190505b6108c76108bf8561077f565b830182610866565b50505b505050565b600082821c905092915050565b60006108ed600019846008026108cf565b1980831691505092915050565b600061090683836108dc565b9150826002028217905092915050565b61091f826103fc565b67ffffffffffffffff8111156109385761093761051f565b5b61094282546106c2565b61094d828285610889565b600060209050601f831160018114610980576000841561096e578287015190505b61097885826108fa565b8655506109e0565b601f19841661098e8661076a565b60005b828110156109b657848901518255600182019150602085019450602081019050610991565b868310156109d357848901516109cf601f8916826108dc565b8355505b6001600288020188555050505b50505050505056fea2646970667358221220a09489e2094026b6da0376102a9662e11c118f9d0e510a8aaf172115e6bd5f2764736f6c634300081c0033","opcodes":"PUSH1 0x80 PUSH1 0x40 MSTORE CALLVALUE DUP1 ISZERO PUSH1 0xF JUMPI PUSH1 0x0 DUP1 REVERT JUMPDEST POP PUSH2 0xA1E DUP1 PUSH2 0x1F PUSH1 0x0 CODECOPY PUSH1 0x0 RETURN INVALID PUSH1 0x80 PUSH1 0x40 MSTORE CALLVALUE DUP1 ISZERO PUSH2 0x10 JUMPI PUSH1 0x0 DUP1 REVERT JUMPDEST POP PUSH1 0x4 CALLDATASIZE LT PUSH2 0x4C JUMPI PUSH1 0x0 CALLDATALOAD PUSH1 0xE0 SHR DUP1 PUSH4 0x51DC1742 EQ PUSH2 0x51 JUMPI DUP1 PUSH4 0x755246EA EQ PUSH2 0x83 JUMPI DUP1 PUSH4 0x7627F386 EQ PUSH2 0xA1 JUMPI DUP1 PUSH4 0xB6315399 EQ PUSH2 0xC0 JUMPI JUMPDEST PUSH1 0x0 DUP1 REVERT JUMPDEST PUSH2 0x6B PUSH1 0x4 DUP1 CALLDATASIZE SUB DUP2 ADD SWAP1 PUSH2 0x66 SWAP2 SWAP1 PUSH2 0x3C0 JUMP JUMPDEST PUSH2 0xDC JUMP JUMPDEST PUSH1 0x40 MLOAD PUSH2 0x7A SWAP4 SWAP3 SWAP2 SWAP1 PUSH2 0x48C JUMP JUMPDEST PUSH1 0x40 MLOAD DUP1 SWAP2 SUB SWAP1 RETURN JUMPDEST PUSH2 0x8B PUSH2 0x18E JUMP JUMPDEST PUSH1 0x40 MLOAD PUSH2 0x98 SWAP2 SWAP1 PUSH2 0x4CA JUMP JUMPDEST PUSH1 0x40 MLOAD DUP1 SWAP2 SUB SWAP1 RETURN JUMPDEST PUSH2 0xA9 PUSH2 0x194 JUMP JUMPDEST PUSH1 0x40 MLOAD PUSH2 0xB7 SWAP3 SWAP2 SWAP1 PUSH2 0x4E5 JUMP JUMPDEST PUSH1 0x40 MLOAD DUP1 SWAP2 SUB SWAP1 RETURN JUMPDEST PUSH2 0xDA PUSH1 0x4 DUP1 CALLDATASIZE SUB DUP2 ADD SWAP1 PUSH2 0xD5 SWAP2 SWAP1 PUSH2 0x64A JUMP JUMPDEST PUSH2 0x2C0 JUMP JUMPDEST STOP JUMPDEST PUSH1 0x0 PUSH1 0x20 MSTORE DUP1 PUSH1 0x0 MSTORE PUSH1 0x40 PUSH1 0x0 KECCAK256 PUSH1 0x0 SWAP2 POP SWAP1 POP DUP1 PUSH1 0x0 ADD SLOAD SWAP1 DUP1 PUSH1 0x1 ADD DUP1 SLOAD PUSH2 0x105 SWAP1 PUSH2 0x6C2 JUMP JUMPDEST DUP1 PUSH1 0x1F ADD PUSH1 0x20 DUP1 SWAP2 DIV MUL PUSH1 0x20 ADD PUSH1 0x40 MLOAD SWAP1 DUP2 ADD PUSH1 0x40 MSTORE DUP1 SWAP3 SWAP2 SWAP1 DUP2 DUP2 MSTORE PUSH1 0x20 ADD DUP3 DUP1 SLOAD PUSH2 0x131 SWAP1 PUSH2 0x6C2 JUMP JUMPDEST DUP1 ISZERO PUSH2 0x17E JUMPI DUP1 PUSH1 0x1F LT PUSH2 0x153 JUMPI PUSH2 0x100 DUP1 DUP4 SLOAD DIV MUL DUP4 MSTORE SWAP2 PUSH1 0x20 ADD SWAP2 PUSH2 0x17E JUMP JUMPDEST DUP3 ADD SWAP2 SWAP1 PUSH1 0x0 MSTORE PUSH1 0x20 PUSH1 0x0 KECCAK256 SWAP1 JUMPDEST DUP2 SLOAD DUP2 MSTORE SWAP1 PUSH1 0x1 ADD SWAP1 PUSH1 0x20 ADD DUP1 DUP4 GT PUSH2 0x161 JUMPI DUP3 SWAP1 SUB PUSH1 0x1F AND DUP3 ADD SWAP2 JUMPDEST POP POP POP POP POP SWAP1 DUP1 PUSH1 0x2 ADD SLOAD SWAP1 POP DUP4 JUMP JUMPDEST PUSH1 0x1 SLOAD DUP2 JUMP JUMPDEST PUSH1 0x60 PUSH1 0x0 DUP1 PUSH1 0x1 SLOAD SUB PUSH2 0x1E3 JUMPI PUSH1 0x0 PUSH1 0x40 MLOAD DUP1 PUSH1 0x40 ADD PUSH1 0x40 MSTORE DUP1 PUSH1 0x17 DUP2 MSTORE PUSH1 0x20 ADD PUSH32 0x4E6F2074687265617473207265706F7274656420796574000000000000000000 DUP2 MSTORE POP SWAP1 SWAP2 POP SWAP2 POP PUSH2 0x2BC JUMP JUMPDEST PUSH1 0x0 DUP1 PUSH1 0x0 PUSH1 0x1 SLOAD DUP2 MSTORE PUSH1 0x20 ADD SWAP1 DUP2 MSTORE PUSH1 0x20 ADD PUSH1 0x0 KECCAK256 PUSH1 0x40 MLOAD DUP1 PUSH1 0x60 ADD PUSH1 0x40 MSTORE SWAP1 DUP2 PUSH1 0x0 DUP3 ADD SLOAD DUP2 MSTORE PUSH1 0x20 ADD PUSH1 0x1 DUP3 ADD DUP1 SLOAD PUSH2 0x21E SWAP1 PUSH2 0x6C2 JUMP JUMPDEST DUP1 PUSH1 0x1F ADD PUSH1 0x20 DUP1 SWAP2 DIV MUL PUSH1 0x20 ADD PUSH1 0x40 MLOAD SWAP1 DUP2 ADD PUSH1 0x40 MSTORE DUP1 SWAP3 SWAP2 SWAP1 DUP2 DUP2 MSTORE PUSH1 0x20 ADD DUP3 DUP1 SLOAD PUSH2 0x24A SWAP1 PUSH2 0x6C2 JUMP JUMPDEST DUP1 ISZERO PUSH2 0x297 JUMPI DUP1 PUSH1 0x1F LT PUSH2 0x26C JUMPI PUSH2 0x100 DUP1 DUP4 SLOAD DIV MUL DUP4 MSTORE SWAP2 PUSH1 0x20 ADD SWAP2 PUSH2 0x297 JUMP JUMPDEST DUP3 ADD SWAP2 SWAP1 PUSH1 0x0 MSTORE PUSH1 0x20 PUSH1 0x0 KECCAK256 SWAP1 JUMPDEST DUP2 SLOAD DUP2 MSTORE SWAP1 PUSH1 0x1 ADD SWAP1 PUSH1 0x20 ADD DUP1 DUP4 GT PUSH2 0x27A JUMPI DUP3 SWAP1 SUB PUSH1 0x1F AND DUP3 ADD SWAP2 JUMPDEST POP POP POP POP POP DUP2 MSTORE PUSH1 0x20 ADD PUSH1 0x2 DUP3 ADD SLOAD DUP2 MSTORE POP POP SWAP1 POP DUP1 PUSH1 0x20 ADD MLOAD DUP2 PUSH1 0x40 ADD MLOAD SWAP3 POP SWAP3 POP POP JUMPDEST SWAP1 SWAP2 JUMP JUMPDEST PUSH1 0x1 PUSH1 0x0 DUP2 SLOAD DUP1 SWAP3 SWAP2 SWAP1 PUSH2 0x2D3 SWAP1 PUSH2 0x722 JUMP JUMPDEST SWAP2 SWAP1 POP SSTORE POP PUSH1 0x40 MLOAD DUP1 PUSH1 0x60 ADD PUSH1 0x40 MSTORE DUP1 PUSH1 0x1 SLOAD DUP2 MSTORE PUSH1 0x20 ADD DUP3 DUP2 MSTORE PUSH1 0x20 ADD TIMESTAMP DUP2 MSTORE POP PUSH1 0x0 DUP1 PUSH1 0x1 SLOAD DUP2 MSTORE PUSH1 0x20 ADD SWAP1 DUP2 MSTORE PUSH1 0x20 ADD PUSH1 0x0 KECCAK256 PUSH1 0x0 DUP3 ADD MLOAD DUP2 PUSH1 0x0 ADD SSTORE PUSH1 0x20 DUP3 ADD MLOAD DUP2 PUSH1 0x1 ADD SWAP1 DUP2 PUSH2 0x328 SWAP2 SWAP1 PUSH2 0x916 JUMP JUMPDEST POP PUSH1 0x40 DUP3 ADD MLOAD DUP2 PUSH1 0x2 ADD SSTORE SWAP1 POP POP PUSH32 0x11765D698B78EA32999ED7224F13B41DBB016E39F78B0180125EDCB19DAB8CA5 PUSH1 0x1 SLOAD DUP3 TIMESTAMP PUSH1 0x40 MLOAD PUSH2 0x36B SWAP4 SWAP3 SWAP2 SWAP1 PUSH2 0x48C JUMP JUMPDEST PUSH1 0x40 MLOAD DUP1 SWAP2 SUB SWAP1 LOG1 POP JUMP JUMPDEST PUSH1 0x0 PUSH1 0x40 MLOAD SWAP1 POP SWAP1 JUMP JUMPDEST PUSH1 0x0 DUP1 REVERT JUMPDEST PUSH1 0x0 DUP1 REVERT JUMPDEST PUSH1 0x0 DUP2 SWAP1 POP SWAP2 SWAP1 POP JUMP JUMPDEST PUSH2 0x39D DUP2 PUSH2 0x38A JUMP JUMPDEST DUP2 EQ PUSH2 0x3A8 JUMPI PUSH1 0x0 DUP1 REVERT JUMPDEST POP JUMP JUMPDEST PUSH1 0x0 DUP2 CALLDATALOAD SWAP1 POP PUSH2 0x3BA DUP2 PUSH2 0x394 JUMP JUMPDEST SWAP3 SWAP2 POP POP JUMP JUMPDEST PUSH1 0x0 PUSH1 0x20 DUP3 DUP5 SUB SLT ISZERO PUSH2 0x3D6 JUMPI PUSH2 0x3D5 PUSH2 0x380 JUMP JUMPDEST JUMPDEST PUSH1 0x0 PUSH2 0x3E4 DUP5 DUP3 DUP6 ADD PUSH2 0x3AB JUMP JUMPDEST SWAP2 POP POP SWAP3 SWAP2 POP POP JUMP JUMPDEST PUSH2 0x3F6 DUP2 PUSH2 0x38A JUMP JUMPDEST DUP3 MSTORE POP POP JUMP JUMPDEST PUSH1 0x0 DUP2 MLOAD SWAP1 POP SWAP2 SWAP1 POP JUMP JUMPDEST PUSH1 0x0 DUP3 DUP3 MSTORE PUSH1 0x20 DUP3 ADD SWAP1 POP SWAP3 SWAP2 POP POP JUMP JUMPDEST PUSH1 0x0 JUMPDEST DUP4 DUP2 LT ISZERO PUSH2 0x436 JUMPI DUP1 DUP3 ADD MLOAD DUP2 DUP5 ADD MSTORE PUSH1 0x20 DUP2 ADD SWAP1 POP PUSH2 0x41B JUMP JUMPDEST PUSH1 0x0 DUP5 DUP5 ADD MSTORE POP POP POP POP JUMP JUMPDEST PUSH1 0x0 PUSH1 0x1F NOT PUSH1 0x1F DUP4 ADD AND SWAP1 POP SWAP2 SWAP1 POP JUMP JUMPDEST PUSH1 0x0 PUSH2 0x45E DUP3 PUSH2 0x3FC JUMP JUMPDEST PUSH2 0x468 DUP2 DUP6 PUSH2 0x407 JUMP JUMPDEST SWAP4 POP PUSH2 0x478 DUP2 DUP6 PUSH1 0x20 DUP7 ADD PUSH2 0x418 JUMP JUMPDEST PUSH2 0x481 DUP2 PUSH2 0x442 JUMP JUMPDEST DUP5 ADD SWAP2 POP POP SWAP3 SWAP2 POP POP JUMP JUMPDEST PUSH1 0x0 PUSH1 0x60 DUP3 ADD SWAP1 POP PUSH2 0x4A1 PUSH1 0x0 DUP4 ADD DUP7 PUSH2 0x3ED JUMP JUMPDEST DUP2 DUP2 SUB PUSH1 0x20 DUP4 ADD MSTORE PUSH2 0x4B3 DUP2 DUP6 PUSH2 0x453 JUMP JUMPDEST SWAP1 POP PUSH2 0x4C2 PUSH1 0x40 DUP4 ADD DUP5 PUSH2 0x3ED JUMP JUMPDEST SWAP5 SWAP4 POP POP POP POP JUMP JUMPDEST PUSH1 0x0 PUSH1 0x20 DUP3 ADD SWAP1 POP PUSH2 0x4DF PUSH1 0x0 DUP4 ADD DUP5 PUSH2 0x3ED JUMP JUMPDEST SWAP3 SWAP2 POP POP JUMP JUMPDEST PUSH1 0x0 PUSH1 0x40 DUP3 ADD SWAP1 POP DUP2 DUP2 SUB PUSH1 0x0 DUP4 ADD MSTORE PUSH2 0x4FF DUP2 DUP6 PUSH2 0x453 JUMP JUMPDEST SWAP1 POP PUSH2 0x50E PUSH1 0x20 DUP4 ADD DUP5 PUSH2 0x3ED JUMP JUMPDEST SWAP4 SWAP3 POP POP POP JUMP JUMPDEST PUSH1 0x0 DUP1 REVERT JUMPDEST PUSH1 0x0 DUP1 REVERT JUMPDEST PUSH32 0x4E487B7100000000000000000000000000000000000000000000000000000000 PUSH1 0x0 MSTORE PUSH1 0x41 PUSH1 0x4 MSTORE PUSH1 0x24 PUSH1 0x0 REVERT JUMPDEST PUSH2 0x557 DUP3 PUSH2 0x442 JUMP JUMPDEST DUP2 ADD DUP2 DUP2 LT PUSH8 0xFFFFFFFFFFFFFFFF DUP3 GT OR ISZERO PUSH2 0x576 JUMPI PUSH2 0x575 PUSH2 0x51F JUMP JUMPDEST JUMPDEST DUP1 PUSH1 0x40 MSTORE POP POP POP JUMP JUMPDEST PUSH1 0x0 PUSH2 0x589 PUSH2 0x376 JUMP JUMPDEST SWAP1 POP PUSH2 0x595 DUP3 DUP3 PUSH2 0x54E JUMP JUMPDEST SWAP2 SWAP1 POP JUMP JUMPDEST PUSH1 0x0 PUSH8 0xFFFFFFFFFFFFFFFF DUP3 GT ISZERO PUSH2 0x5B5 JUMPI PUSH2 0x5B4 PUSH2 0x51F JUMP JUMPDEST JUMPDEST PUSH2 0x5BE DUP3 PUSH2 0x442 JUMP JUMPDEST SWAP1 POP PUSH1 0x20 DUP2 ADD SWAP1 POP SWAP2 SWAP1 POP JUMP JUMPDEST DUP3 DUP2 DUP4 CALLDATACOPY PUSH1 0x0 DUP4 DUP4 ADD MSTORE POP POP POP JUMP JUMPDEST PUSH1 0x0 PUSH2 0x5ED PUSH2 0x5E8 DUP5 PUSH2 0x59A JUMP JUMPDEST PUSH2 0x57F JUMP JUMPDEST SWAP1 POP DUP3 DUP2 MSTORE PUSH1 0x20 DUP2 ADD DUP5 DUP5 DUP5 ADD GT ISZERO PUSH2 0x609 JUMPI PUSH2 0x608 PUSH2 0x51A JUMP JUMPDEST JUMPDEST PUSH2 0x614 DUP5 DUP3 DUP6 PUSH2 0x5CB JUMP JUMPDEST POP SWAP4 SWAP3 POP POP POP JUMP JUMPDEST PUSH1 0x0 DUP3 PUSH1 0x1F DUP4 ADD SLT PUSH2 0x631 JUMPI PUSH2 0x630 PUSH2 0x515 JUMP JUMPDEST JUMPDEST DUP2 CALLDATALOAD PUSH2 0x641 DUP5 DUP3 PUSH1 0x20 DUP7 ADD PUSH2 0x5DA JUMP JUMPDEST SWAP2 POP POP SWAP3 SWAP2 POP POP JUMP JUMPDEST PUSH1 0x0 PUSH1 0x20 DUP3 DUP5 SUB SLT ISZERO PUSH2 0x660 JUMPI PUSH2 0x65F PUSH2 0x380 JUMP JUMPDEST JUMPDEST PUSH1 0x0 DUP3 ADD CALLDATALOAD PUSH8 0xFFFFFFFFFFFFFFFF DUP2 GT ISZERO PUSH2 0x67E JUMPI PUSH2 0x67D PUSH2 0x385 JUMP JUMPDEST JUMPDEST PUSH2 0x68A DUP5 DUP3 DUP6 ADD PUSH2 0x61C JUMP JUMPDEST SWAP2 POP POP SWAP3 SWAP2 POP POP JUMP JUMPDEST PUSH32 0x4E487B7100000000000000000000000000000000000000000000000000000000 PUSH1 0x0 MSTORE PUSH1 0x22 PUSH1 0x4 MSTORE PUSH1 0x24 PUSH1 0x0 REVERT JUMPDEST PUSH1 0x0 PUSH1 0x2 DUP3 DIV SWAP1 POP PUSH1 0x1 DUP3 AND DUP1 PUSH2 0x6DA JUMPI PUSH1 0x7F DUP3 AND SWAP2 POP JUMPDEST PUSH1 0x20 DUP3 LT DUP2 SUB PUSH2 0x6ED JUMPI PUSH2 0x6EC PUSH2 0x693 JUMP JUMPDEST JUMPDEST POP SWAP2 SWAP1 POP JUMP JUMPDEST PUSH32 0x4E487B7100000000000000000000000000000000000000000000000000000000 PUSH1 0x0 MSTORE PUSH1 0x11 PUSH1 0x4 MSTORE PUSH1 0x24 PUSH1 0x0 REVERT JUMPDEST PUSH1 0x0 PUSH2 0x72D DUP3 PUSH2 0x38A JUMP JUMPDEST SWAP2 POP PUSH32 0xFFFFFFFFFFFFFFFFFFFFFFFFFFFFFFFFFFFFFFFFFFFFFFFFFFFFFFFFFFFFFFFF DUP3 SUB PUSH2 0x75F JUMPI PUSH2 0x75E PUSH2 0x6F3 JUMP JUMPDEST JUMPDEST PUSH1 0x1 DUP3 ADD SWAP1 POP SWAP2 SWAP1 POP JUMP JUMPDEST PUSH1 0x0 DUP2 SWAP1 POP DUP2 PUSH1 0x0 MSTORE PUSH1 0x20 PUSH1 0x0 KECCAK256 SWAP1 POP SWAP2 SWAP1 POP JUMP JUMPDEST PUSH1 0x0 PUSH1 0x20 PUSH1 0x1F DUP4 ADD DIV SWAP1 POP SWAP2 SWAP1 POP JUMP JUMPDEST PUSH1 0x0 DUP3 DUP3 SHL SWAP1 POP SWAP3 SWAP2 POP POP JUMP JUMPDEST PUSH1 0x0 PUSH1 0x8 DUP4 MUL PUSH2 0x7CC PUSH32 0xFFFFFFFFFFFFFFFFFFFFFFFFFFFFFFFFFFFFFFFFFFFFFFFFFFFFFFFFFFFFFFFF DUP3 PUSH2 0x78F JUMP JUMPDEST PUSH2 0x7D6 DUP7 DUP4 PUSH2 0x78F JUMP JUMPDEST SWAP6 POP DUP1 NOT DUP5 AND SWAP4 POP DUP1 DUP7 AND DUP5 OR SWAP3 POP POP POP SWAP4 SWAP3 POP POP POP JUMP JUMPDEST PUSH1 0x0 DUP2 SWAP1 POP SWAP2 SWAP1 POP JUMP JUMPDEST PUSH1 0x0 PUSH2 0x813 PUSH2 0x80E PUSH2 0x809 DUP5 PUSH2 0x38A JUMP JUMPDEST PUSH2 0x7EE JUMP JUMPDEST PUSH2 0x38A JUMP JUMPDEST SWAP1 POP SWAP2 SWAP1 POP JUMP JUMPDEST PUSH1 0x0 DUP2 SWAP1 POP SWAP2 SWAP1 POP JUMP JUMPDEST PUSH2 0x82D DUP4 PUSH2 0x7F8 JUMP JUMPDEST PUSH2 0x841 PUSH2 0x839 DUP3 PUSH2 0x81A JUMP JUMPDEST DUP5 DUP5 SLOAD PUSH2 0x79C JUMP JUMPDEST DUP3 SSTORE POP POP POP POP JUMP JUMPDEST PUSH1 0x0 SWAP1 JUMP JUMPDEST PUSH2 0x856 PUSH2 0x849 JUMP JUMPDEST PUSH2 0x861 DUP2 DUP5 DUP5 PUSH2 0x824 JUMP JUMPDEST POP POP POP JUMP JUMPDEST JUMPDEST DUP2 DUP2 LT ISZERO PUSH2 0x885 JUMPI PUSH2 0x87A PUSH1 0x0 DUP3 PUSH2 0x84E JUMP JUMPDEST PUSH1 0x1 DUP2 ADD SWAP1 POP PUSH2 0x867 JUMP JUMPDEST POP POP JUMP JUMPDEST PUSH1 0x1F DUP3 GT ISZERO PUSH2 0x8CA JUMPI PUSH2 0x89B DUP2 PUSH2 0x76A JUMP JUMPDEST PUSH2 0x8A4 DUP5 PUSH2 0x77F JUMP JUMPDEST DUP2 ADD PUSH1 0x20 DUP6 LT ISZERO PUSH2 0x8B3 JUMPI DUP2 SWAP1 POP JUMPDEST PUSH2 0x8C7 PUSH2 0x8BF DUP6 PUSH2 0x77F JUMP JUMPDEST DUP4 ADD DUP3 PUSH2 0x866 JUMP JUMPDEST POP POP JUMPDEST POP POP POP JUMP JUMPDEST PUSH1 0x0 DUP3 DUP3 SHR SWAP1 POP SWAP3 SWAP2 POP POP JUMP JUMPDEST PUSH1 0x0 PUSH2 0x8ED PUSH1 0x0 NOT DUP5 PUSH1 0x8 MUL PUSH2 0x8CF JUMP JUMPDEST NOT DUP1 DUP4 AND SWAP2 POP POP SWAP3 SWAP2 POP POP JUMP JUMPDEST PUSH1 0x0 PUSH2 0x906 DUP4 DUP4 PUSH2 0x8DC JUMP JUMPDEST SWAP2 POP DUP3 PUSH1 0x2 MUL DUP3 OR SWAP1 POP SWAP3 SWAP2 POP POP JUMP JUMPDEST PUSH2 0x91F DUP3 PUSH2 0x3FC JUMP JUMPDEST PUSH8 0xFFFFFFFFFFFFFFFF DUP2 GT ISZERO PUSH2 0x938 JUMPI PUSH2 0x937 PUSH2 0x51F JUMP JUMPDEST JUMPDEST PUSH2 0x942 DUP3 SLOAD PUSH2 0x6C2 JUMP JUMPDEST PUSH2 0x94D DUP3 DUP3 DUP6 PUSH2 0x889 JUMP JUMPDEST PUSH1 0x0 PUSH1 0x20 SWAP1 POP PUSH1 0x1F DUP4 GT PUSH1 0x1 DUP2 EQ PUSH2 0x980 JUMPI PUSH1 0x0 DUP5 ISZERO PUSH2 0x96E JUMPI DUP3 DUP8 ADD MLOAD SWAP1 POP JUMPDEST PUSH2 0x978 DUP6 DUP3 PUSH2 0x8FA JUMP JUMPDEST DUP7 SSTORE POP PUSH2 0x9E0 JUMP JUMPDEST PUSH1 0x1F NOT DUP5 AND PUSH2 0x98E DUP7 PUSH2 0x76A JUMP JUMPDEST PUSH1 0x0 JUMPDEST DUP3 DUP2 LT ISZERO PUSH2 0x9B6 JUMPI DUP5 DUP10 ADD MLOAD DUP3 SSTORE PUSH1 0x1 DUP3 ADD SWAP2 POP PUSH1 0x20 DUP6 ADD SWAP5 POP PUSH1 0x20 DUP2 ADD SWAP1 POP PUSH2 0x991 JUMP JUMPDEST DUP7 DUP4 LT ISZERO PUSH2 0x9D3 JUMPI DUP5 DUP10 ADD MLOAD PUSH2 0x9CF PUSH1 0x1F DUP10 AND DUP3 PUSH2 0x8DC JUMP JUMPDEST DUP4 SSTORE POP JUMPDEST PUSH1 0x1 PUSH1 0x2 DUP9 MUL ADD DUP9 SSTORE POP POP POP JUMPDEST POP POP POP POP POP POP JUMP INVALID LOG2 PUSH5 0x6970667358 0x22 SLT KECCAK256 LOG0 SWAP5 DUP10 0xE2 MULMOD BLOCKHASH 0x26 0xB6 0xDA SUB PUSH23 0x102A9662E11C118F9D0E510A8AAF172115E6BD5F276473 PUSH16 0x6C634300081C00330000000000000000 "},"methodIdentifiers":{"getLatestThreat()":"7627f386","reportThreat(string)":"b6315399","threatCount()":"755246ea","threats(uint256)":"51dc1742"}}}}}