{
  "_format": "hh-sol-artifact-1",
  "contractName": "SentinelChain",
  "sourceName": "contracts/SentinelChain.sol",
  "abi": [
    {
      "anonymous": false,
      "inputs": [
        {
          "indexed": false,
          "internalType": "uint256",
          "name": "threatId",
          "type": "uint256"
        },
        {
          "indexed": false,
          "internalType": "string",
          "name": "description",
          "type": "string"
        },
        {
          "indexed": false,
          "internalType": "uint256",
          "name": "timestamp",
          "type": "uint256"
        }
      ],
      "name": "ThreatReported",
      "type": "event"
    },
    {
      "inputs": [],
      "name": "getLatestThreat",
      "outputs": [
        {
          "internalType": "string",
          "name": "",
          "type": "string"
        },
        {
          "internalType": "uint256",
          "name": "",
          "type": "uint256"
        }
      ],
      "stateMutability": "view",
      "type": "function"
    },
    {
      "inputs": [
        {
          "internalType": "string",
          "name": "_description",
          "type": "string"
        }
      ],
      "name": "reportThreat",
      "outputs": [],
      "stateMutability": "nonpayable",
      "type": "function"
    },
    {
      "inputs": [],
      "name": "threatCount",
      "outputs": [
        {
          "internalType": "uint256",
          "name": "",
          "type": "uint256"
        }
      ],
      "stateMutability": "view",
      "type": "function"
    },
    {
      "inputs": [
        {
          "internalType": "uint256",
          "name": "",
          "type": "uint256"
        }
      ],
      "name": "threats",
      "outputs": [
        {
          "internalType": "uint256",
          "name": "threatId",
          "type": "uint256"
        },
        {
          "internalType": "string",
          "name": "description",
          "type": "string"
        },
        {
          "internalType": "uint256",
          "name": "timestamp",
          "type": "uint256"
        }
      ],
      "stateMutability": "view",
      "type": "function"
    }
  ],
  "bytecode": "0x6080604052348015600f57600080fd5b50610a1e8061001f6000396000f3fe608060405234801561001057600080fd5b506004361061004c5760003560e01c806351dc174214610051578063755246ea146100835780637627f386146100a1578063b6315399146100c0575b600080fd5b61006b600480360381019061006691906103c0565b6100dc565b60405161007a9392919061048c565b60405180910390f35b61008b61018e565b60405161009891906104ca565b60405180910390f35b6100a9610194565b6040516100b79291906104e5565b60405180910390f35b6100da60048036038101906100d5919061064a565b6102c0565b005b6000602052806000526040600020600091509050806000015490806001018054610105906106c2565b80601f0160208091040260200160405190810160405280929190818152602001828054610131906106c2565b801561017e5780601f106101535761010080835404028352916020019161017e565b820191906000526020600020905b81548152906001019060200180831161016157829003601f168201915b5050505050908060020154905083565b60015481565b6060600080600154036101e35760006040518060400160405280601781526020017f4e6f2074687265617473207265706f727465642079657400000000000000000081525090915091506102bc565b600080600060015481526020019081526020016000206040518060600160405290816000820154815260200160018201805461021e906106c2565b80601f016020809104026020016040519081016040528092919081815260200182805461024a906106c2565b80156102975780601f1061026c57610100808354040283529160200191610297565b820191906000526020600020905b81548152906001019060200180831161027a57829003601f168201915b5050505050815260200160028201548152505090508060200151816040015192509250505b9091565b600160008154809291906102d390610722565b9190505550604051806060016040528060015481526020018281526020014281525060008060015481526020019081526020016000206000820151816000015560208201518160010190816103289190610916565b50604082015181600201559050507f11765d698b78ea32999ed7224f13b41dbb016e39f78b0180125edcb19dab8ca5600154824260405161036b9392919061048c565b60405180910390a150565b6000604051905090565b600080fd5b600080fd5b6000819050919050565b61039d8161038a565b81146103a857600080fd5b50565b6000813590506103ba81610394565b92915050565b6000602082840312156103d6576103d5610380565b5b60006103e4848285016103ab565b91505092915050565b6103f68161038a565b82525050565b600081519050919050565b600082825260208201905092915050565b60005b8381101561043657808201518184015260208101905061041b565b60008484015250505050565b6000601f19601f8301169050919050565b600061045e826103fc565b6104688185610407565b9350610478818560208601610418565b61048181610442565b840191505092915050565b60006060820190506104a160008301866103ed565b81810360208301526104b38185610453565b90506104c260408301846103ed565b949350505050565b60006020820190506104df60008301846103ed565b92915050565b600060408201905081810360008301526104ff8185610453565b905061050e60208301846103ed565b9392505050565b600080fd5b600080fd5b7f4e487b7100000000000000000000000000000000000000000000000000000000600052604160045260246000fd5b61055782610442565b810181811067ffffffffffffffff821117156105765761057561051f565b5b80604052505050565b6000610589610376565b9050610595828261054e565b919050565b600067ffffffffffffffff8211156105b5576105b461051f565b5b6105be82610442565b9050602081019050919050565b82818337600083830152505050565b60006105ed6105e88461059a565b61057f565b9050828152602081018484840111156106095761060861051a565b5b6106148482856105cb565b509392505050565b600082601f83011261063157610630610515565b5b81356106418482602086016105da565b91505092915050565b6000602082840312156106605761065f610380565b5b600082013567ffffffffffffffff81111561067e5761067d610385565b5b61068a8482850161061c565b91505092915050565b7f4e487b7100000000000000000000000000000000000000000000000000000000600052602260045260246000fd5b600060028204905060018216806106da57607f821691505b6020821081036106ed576106ec610693565b5b50919050565b7f4e487b7100000000000000000000000000000000000000000000000000000000600052601160045260246000fd5b600061072d8261038a565b91507fffffffffffffffffffffffffffffffffffffffffffffffffffffffffffffffff820361075f5761075e6106f3565b5b600182019050919050565b60008190508160005260206000209050919050565b60006020601f8301049050919050565b600082821b905092915050565b6000600883026107cc7fffffffffffffffffffffffffffffffffffffffffffffffffffffffffffffffff8261078f565b6107d6868361078f565b95508019841693508086168417925050509392505050565b6000819050919050565b600061081361080e6108098461038a565b6107ee565b61038a565b9050919050565b6000819050919050565b61082d836107f8565b6108416108398261081a565b84845461079c565b825550505050565b600090565b610856610849565b610861818484610824565b505050565b5b818110156108855761087a60008261084e565b600181019050610867565b5050565b601f8211156108ca5761089b8161076a565b6108a48461077f565b810160208510156108b3578190505b6108c76108bf8561077f565b830182610866565b50505b505050565b600082821c905092915050565b60006108ed600019846008026108cf565b1980831691505092915050565b600061090683836108dc565b9150826002028217905092915050565b61091f826103fc565b67ffffffffffffffff8111156109385761093761051f565b5b61094282546106c2565b61094d828285610889565b600060209050601f831160018114610980576000841561096e578287015190505b61097885826108fa565b8655506109e0565b601f19841661098e8661076a565b60005b828110156109b657848901518255600182019150602085019450602081019050610991565b868310156109d357848901516109cf601f8916826108dc565b8355505b6001600288020188555050505b50505050505056fea2646970667358221220a09489e2094026b6da0376102a9662e11c118f9d0e510a8aaf172115e6bd5f2764736f6c634300081c0033",
  "linkReferences": {},
  "deployedLinkReferences": {}
}